:020000040800F2
:10000000600900202D020008811A000873190008F9
:100010007D1A0008F90A0008EB2F00080000000014
:10002000000000000000000000000000211C00088B
:100030005718000800000000091B000831250008BF
:10004000470200084702000847020008470200086C
:10005000470200084702000847020008470200085C
:10006000470200084702000847020008470200084C
:10007000470200084702000847020008470200083C
:10008000470200084702000847020008470200082C
:10009000470200084702000847020008470200081C
:1000A000470200084702000847020008470200080C
:1000B0004702000847020008B92700084702000865
:1000C00047020008470200084702000847020008EC
:1000D00047020008C92D000847020008470200082F
:1000E00047020008470200084702000847020008CC
:1000F00047020008470200084702000847020008BC
:100100004702000847020008F127000847020008DC
:100110004702000847020008C528000847020008F7
:10012000470200084702000847020008470200088B
:1001300000F002F800F06BF80AA090E8000C82448E
:100140008344AAF10107DA4501D100F060F8AFF26B
:10015000090EBAE80F0013F0010F18BFFB1A43F0A5
:1001600001031847504F0000704F00000A444FF041
:10017000000C10F8013B13F0070408BF10F8014B06
:100180001D1108BF10F8015B641E05D010F8016B4B
:10019000641E01F8016BF9D113F0080F1EBF10F8AF
:1001A000014BAD1C0C1B09D16D1E58BF01F801CBD2
:1001B000FAD505E014F8016B01F8016B6D1EF9D555
:1001C0009142D6D37047000000230024002500266A
:1001D000103A28BF78C1FBD8520728BF30C148BFAA
:1001E0000B607047642900F09F80752900F09C80A7
:1001F000782900F0D580632900F06982732900F026
:100200006E82002070471FB51FBD10B510BD00F0F5
:1002100099FA1146FFF7F7FF02F06EFF00F0B7FA08
:1002200003B4FFF7F2FF03BC02F0E8FE0948804781
:1002300009480047FEE7FEE7FEE7FEE7FEE7FEE7C8
:10024000FEE7FEE7FEE7FEE704480549054A064BE0
:1002500070470000352500083101000860030020C8
:100260006009002060050020600500207047000044
:100270000FB4044910B503AA029800F035FA10BC77
:100280005DF814FBC800002070B50446856900685D
:10029000C10601D5302600E02026C00707D070BD7A
:1002A000D4E9012130469047206A401C20626D1E2F
:1002B000F6D570BD70B5044685690078C00707D1D2
:1002C00070BDD4E9012120209047206A401C2062A3
:1002D0006D1EF6D570BD70B50C460546012A05D0D9
:1002E0002878800600D5EA69002302E0012305E0B2
:1002F0005B1C934202D2E05C0028F9D1A869E618A1
:10030000C01AA861286A184428622846FFF7BCFF73
:1003100004E0D5E9012114F8010B9047B442F8D369
:100320002846FFF7C7FF70BD2DE9F04106460024BF
:1003300010687529314616A510D0AFF3008000284B
:1003400002DA404213A507E031688A0701D512A5F9
:1003500002E0490704D511A5012401E0AFF30080B4
:1003600000210A2206F1240709E0B0FBF2FCB0FBF1
:10037000F2F302FB1C00303078541846491C002868
:10038000F3D123462A463046BDE8F04100F03CB99F
:10039000000000002D0000002B00000020000000E5
:1003A00070B504460D4621461068AFF300802188E1
:1003B000090502D50F4A7A4402E00E4A7A440E3209
:1003C000002104F1240305E000F00F060009965D0A
:1003D0005E54491C0028F7D120780023000704D57B
:1003E000702D02D009B1022311322046BDE87040C1
:1003F00000F00AB9044A00002DE9F05F894604467E
:100400004FF0000ADFF874B1FB44C0F820A020468A
:10041000E1688847002874D0252806D0D4E9012156
:100420009047206A401C2062F1E700265F46204684
:10043000E16888472028054607DB312D05D2781969
:1004400010F8200C08B10643F1E7B00701D526F0FB
:100450000406C4F81CA00027C4F818A02A2D09D04F
:10046000284602F0C4FD38B304EB8708303DC8F8D5
:10047000185019E059F8041B204604EB87029161DB
:10048000E1688847012F054618D1E069002820DA85
:1004900026F020061DE0D8F8180000EB800005EBE0
:1004A00040003038C8F818002046E1688847054603
:1004B00002F09DFD0028EED1012F0AD02E2D08D18B
:1004C0002046E16888477F1C0546022F46F020063B
:1004D000C4DBA069002803DA404246F00106A061AF
:1004E000F00701D026F010066C2D0BD0682D09D036
:1004F0004C2D39D06A2D35D0742D35D07A2D33D08E
:1005000016E038E0E1682F4620468847B8420546A5
:1005100009D16C2F26D04FF48060E1680643204655
:100520008847054604E06C2F1AD04FF480700643CC
:100530000DB3A5F14100192802D8203546F4006614
:100540004A462946204626604E46FFF74BFE80B1BC
:1005500001280BD0F61D26F0070000F1080956E728
:100560004020E4E78020D8E70020D6E706F1040920
:100570004DE7284652E7206ABDE8F09FDA490000BF
:100580004FF0013C50F8042B51F8043B9A4221D122
:10059000A2EB0C03934313EACC1317D150F8042BAE
:1005A00051F8043B9A4215D1A2EB0C03934313EA92
:1005B000CC130BD150F8042B51F8043B9A4209D1CB
:1005C000A2EB0C03934313EACC13DBD04FF00000F3
:1005D000704700BFD01A01BAB1FA81F101F01801D9
:1005E00022FA01F0CB40C1F12001DBB2C0B2C01A47
:1005F0002CFA01F3D11A914311EAC311E6D17047E5
:1006000070477047704770472DE9F0470D4699468F
:100610009246044600F124080168880604D5E06982
:1006200021F01001216000E00120A84201DD471BFC
:1006300000E00027A1697A1902EB0900081AA061FD
:100640002078C00602D42046FFF71EFE002608E0F0
:10065000D4E901211AF806009047206A401C761C54
:1006600020624E45F4DB2078C0060AD52046FFF70D
:100670000BFE06E0D4E9012130209047206A401C9F
:100680002062381EA7F10107F4DC07E0D4E901215C
:1006900018F805009047206A401C2062281EA5F12A
:1006A0000105F3DC2046FFF705FE2078000602D5A1
:1006B0000220BDE8F0870120FBE710B5436913B1C4
:1006C000AFF3008001E0FFF706FE012010BD1278B5
:1006D00000F124010A7000224A700122EDE711683E
:1006E0004FF0FF32E9E70000074B70B50D467B4441
:1006F00000F011F80446284600F020F810B14FF041
:10070000FF3070BD204670BDEB29000001694A1C16
:1007100002610878704700B58FB0CDE90131002142
:10072000059105497944CDE9031011466846FFF764
:1007300063FE0FB000BD0000E5FFFFFF007B00F08F
:1007400080007047754600F02BF8AE4605006946FC
:10075000534620F00700854618B020B5FFF774FD1A
:10076000BDE820404FF000064FF000074FF00008B2
:100770004FF0000B21F00701AC46ACE8C009ACE833
:10078000C009ACE8C009ACE8C0098D46704710B597
:100790000446AFF300802046BDE81040FFF740BD9F
:1007A00000487047000300200149087070470000AE
:1007B000000000201CB58548407800287ED1844880
:1007C00040780028FAD1834840780028F6D1824842
:1007D00040780028F2D1814840780028EED1804846
:1007E00040780028EAD17F480078012867D17E4808
:1007F00000780A281DD2DFE800F0E0051D364F68BA
:100800008099B2CA40F67F004FF4FA6140F2DC539F
:1008100040F63402CDE9001019464FF4C86000F0EC
:1008200005F971480078401C6F49087065206D49D2
:100830000870C2E040F67F004FF4FA6140F2B273F4
:100840004FF4F062CDE9001040F634014FF4C86077
:1008500000F0ECF864480078401C6349087065209B
:1008600060490870A9E040F67F0040F2DC5140F298
:10087000B2734FF4F062CDE9001040F634014FF44A
:10088000C86000F0D3F858480078401C56490870FA
:1008900065205449087090E040F67F0040F2DC513A
:1008A0000B4640F63402CDE900104FF4C86000F06A
:1008B000BDF84D480078401C4B4901E085E07DE0E3
:1008C000087065204749087077E040F26B3040F2CD
:1008D000DC510B4640F63402CDE9001040F2A46131
:1008E0004FF4C86000F0A2F83F480078401C3E4931
:1008F000087065203B4908705FE040F26B3040F2C1
:10090000DC5140F20E6340F6C412CDE9001040F213
:100910006C714FF4C86000F089F833480078401CCF
:100920003149087065202F49087046E040F26B306D
:100930004FF4FA6140F20E6340F6C412CDE90010A4
:1009400040F26C714FF4C86000F070F826480078EF
:10095000401C254908706520224908702DE040F2AE
:100960006B304FF4FA6140F2DC530A46CDE90010D7
:1009700040F23A714FF4C86000F058F81A48007815
:10098000401C1949087065201649087015E040F6AA
:100990007F004FF4FA6140F2DC5340F63402CDE9B7
:1009A000001019464FF4C86000F040F801200E49CD
:1009B000087000200B49087000BF06E00948007865
:1009C000652802D10120074908701CBD04000020E1
:1009D000180000202C0000204000002054000020BF
:1009E00068000020000000200100002010B5094828
:1009F00001F0E0FA084801F0DDFA084801F0DAFAFF
:100A0000074801F0D7FA074801F0D4FA064801F088
:100A1000D1FA10BD04000020180000202C00002096
:100A20004000002054000020680000202DE9F0471D
:100A300004460D4617461E46DDE9088922464FF456
:100A40007A71114801F002FC2A464FF47A710F487E
:100A500001F0FCFB3A464FF47A710D4801F0F6FBC9
:100A600032464FF47A710B4801F0F0FB42464FF4E6
:100A70007A71094801F0EAFB4A464FF47A71074857
:100A800001F0E4FBBDE8F08704000020180000201E
:100A90002C000020400000205400002068000020AE
:100AA00010B5044621460D4801F0EEFB21460C48E6
:100AB00001F0EAFB21460B4801F0E6FB21460A481B
:100AC00001F0E2FB2146094801F0DEFB214608481F
:100AD00001F0DAFB07A0FFF7CBFB10BD04000020FC
:100AE000180000202C0000204000002054000020AE
:100AF000680000200D0A000000BFFEE700B537487F
:100B00008078012806D002280ED0032817D00428A8
:100B10002BD11FE032480068324908703248D0F8C3
:100B20002C013249087020E02D48001D00682D4935
:100B300008702D48D0F828012C49087015E0284885
:100B40000C300068274908702748D0F83001274941
:100B500008700AE0224808300068224908702248DC
:100B6000D0F834012149087000BF00BF1D4800784B
:100B700048B91E48007830B91849887800F0A8F8BC
:100B800001201B49087017480078012808D1174830
:100B9000007828B91648007810B1062000F098F8BF
:100BA0001048007848B911480078012805D110484C
:100BB000007810B1052000F08BF80A480078012871
:100BC0000AD10A480078012806D10449887800F043
:100BD0007FF800200649087000BD00008400002056
:100BE00028812242950000200080224296000020A9
:100BF000940000202F488078012806D002280ED0CB
:100C0000032817D004282BD11FE02B4800682B495C
:100C100008702B48D0F83C012A49087020E026488B
:100C2000001D0068254908702548D0F8380125497D
:100C3000087015E0204818380068204908702048DE
:100C4000D0F824011F4908700AE01B4814380068D6
:100C50001A4908701A48D0F820011A49087000BFD4
:100C600000BF16480078012805D11648007810B951
:100C70000120154908701148007870B911480078B2
:100C800001280AD11048007838B110480078401C7B
:100C90000E49087000200C490870064800790B497D
:100CA0000978884205DC00200249C87008710749AC
:100CB0000870704784000020388122429200002092
:100CC000008022429300002090000020910000202C
:100CD00007285BD2DFE800F05A04142432404D00AC
:100CE00001212B4A116000212A4AC2F8B4110121C6
:100CF000274A083211600021264AC2F8BC1145E09B
:100D00000021234A11600121224AC2F8B4110021B6
:100D10001F4A0832116001211E4AC2F8BC1135E099
:100D200000211B4A11601B4AC2F8B4110121184A64
:100D300008321160174AC2F8BC1127E00121144A99
:100D40001160144AC2F8B4110021114A083211602E
:100D5000104AC2F8BC1119E001210D4A11600D4A78
:100D6000C2F8B4110A4A083211600A4AC2F8BC112A
:100D70000CE00021064A1160064AC2F8B411044A88
:100D800008321160034AC2F8BC1100BF00BF7047AF
:100D9000B08123420080234208B50121802000F069
:100DA000C5FE4FF47040ADF8000003208DF802003E
:100DB00010208DF803006946014800F04DFD08BD84
:100DC000001C01402DE9F05F83468A4600F0A6F83A
:100DD00001202749C87000200870BAF1010F02D025
:100DE000BAF1020F11D12349584603F0A7FE8046FD
:100DF00003F014FD0646204A204B03F0B9FA0446DE
:100E000003F084FA1A49886029E0BAF1030F02D08E
:100E1000BAF1040F13D1584603F000FD8046184A7A
:100E2000184B03F0FDFB06464FF06632164B03F0FD
:100E3000F7FB044603F06AFA0D4988600FE0BAF147
:100E4000050F02D0BAF1060F09D10A49584603F03E
:100E500075FE04460D4903F07BFD05498860504648
:100E6000FFF736FF024880F802A0BDE8F09F0000BF
:100E70008400002000004846E02D90A0F821394071
:100E800038069917BFD47F406666F03F0000704275
:100E900010B5FFF781FF00F02BF810BD70B50546C7
:100EA0000C4600F03BF801200549C8700870084660
:100EB00005712046FFF70CFF0148847070BD0000EB
:100EC0008400002010B504462146084801F0F1FED8
:100ED0002146064801F0EFFE2146044801F0EDFEF0
:100EE0002146024801F0EBFE10BD00000004004066
:100EF00008B50121202000F019FE4FF47F40ADF825
:100F0000000003208DF8020028208DF803006946B8
:100F1000014800F0A1FC08BD0014014010B50A20F2
:100F2000FFF7D0FF10BD000010B5F848C0780028CA
:100F30007AD1F6484078012877D1F5480078112811
:100F400016D2DFE800F0091623303D4A576473805B
:100F50008D9AA7B4C1CEDB0001210846FFF79EFFA2
:100F6000EB480078401CEA4908706420E749487063
:100F7000CBE003210120FFF791FFE5480078401CFA
:100F8000E34908706420E1494870BEE00121084649
:100F9000FFF784FFDE480078401CDD4908706420BC
:100FA000DA494870B1E004210220FFF777FFD84802
:100FB0000078401CD64908706420D4494870A4E0E9
:100FC00001210846FFF76AFFD1480078401CD0494C
:100FD00008706420CD49487097E003210220FFF794
:100FE0005DFFCB480078401CC94908706420C749A0
:100FF00048708AE001210846FFF750FFC448007896
:10100000401CC34908706420C04948707DE0042139
:101010000220FFF743FFBE480078401CBC4908701F
:101020006420BA49487070E02DE26FE00121084663
:10103000FFF734FFB6480078401CB54908706420BB
:10104000B249487061E003210220FFF727FFB04852
:101050000078401CAE4908706420AC49487054E0E8
:1010600001210846FFF71AFFA9480078401CA8494B
:1010700008706420A549487047E004210220FFF76A
:101080000DFFA3480078401CA149087064209F49C7
:1010900048703AE001210846FFF700FF9C480078BD
:1010A000401C9B4908706420984948702DE003213A
:1010B0000220FFF7F3FE96480078401C9449087020
:1010C00064209249487020E001210846FFF7E6FEBF
:1010D0008F480078401C8E49087064208B49487006
:1010E00013E004210220FFF7D9FE89480078401C54
:1010F0008749087064208549487006E000208449CB
:10110000087002208149487000BF70E37F48407832
:10111000022875D17E480078102815D2DFE800F04B
:101120000815222F3C495663717E8B98A5B2BFCC1F
:1011300002210120FFF7B2FE75480078401C744977
:101140000870652071494870C2E003210120FFF753
:10115000A5FE6F480078401C6D49087065206B49FA
:101160004870B5E002210120FFF798FE684800783A
:10117000401C67490870652064494870A8E0042154
:101180000220FFF78BFE62480078401C604908701F
:1011900065205E4948709BE002210120FFF77EFE3A
:1011A0005B480078401C5A490870652057494870D0
:1011B0008EE003210220FFF771FE55480078401CA5
:1011C0005349087065205149487081E0022101208F
:1011D000FFF764FE4E480078401C4D4908706520BA
:1011E0004A49487074E004210220FFF757FE48483E
:1011F0000078401C4649087065204449487067E003
:1012000067E002210120FFF749FE41480078401CB9
:101210003F49087065203D49487059E0032102208C
:10122000FFF73CFE3A480078401C394908706520B9
:10123000364948704CE002210120FFF72FFE344868
:101240000078401C324908706520304948703FE002
:1012500004210220FFF722FE2D480078401C2C4973
:10126000087065202949487032E002210120FFF70B
:1012700015FE27480078401C254908706520234941
:10128000487025E003210220FFF708FE204800787F
:10129000401C1F49087065201C49487018E0022155
:1012A0000120FFF7FBFD1A480078401C1849087020
:1012B0006520164948700BE004210220FFF7EEFD7F
:1012C0000020134908701149487000F0BFFA00BFB0
:1012D0008DE20E484078642809D100F0B7FA4FF447
:1012E000967001F0AFFE0120084948707FE2074880
:1012F000407865280ED100F0A9FA4FF4967001F0FD
:10130000A1FE02200149487071E200008400002023
:1013100097000020F7484078032864D1F648007809
:1013200008285FD2DFE800F0040E1B25323C495349
:101330000121F248FFF746FDEF480078401CEE49D6
:1013400008704FE001210846FFF7A8FDEA48007841
:10135000401CE94908706720E649487042E00321D3
:10136000E648FFF72FFDE4480078401CE24908708A
:1013700038E003210120FFF791FDDF480078401C91
:10138000DD4908706720DB4948702BE00221DB480B
:10139000FFF718FDD8480078401CD749087021E0B5
:1013A00002210120FFF77AFDD3480078401CD24982
:1013B00008706720CF49487014E00421CF48FFF738
:1013C00001FDCD480078401CCB4908700AE004219B
:1013D0000120FFF763FD0020C74908706720C54959
:1013E000487000BF03E2C3484078672809D100F085
:1013F0002DFA4FF4967001F025FE0320BD49487088
:10140000F5E1BC48407804283ED1BB48007830B1B3
:10141000012811D002281CD0032834D126E0012154
:101420000420FFF73BFDB4480078401CB249087027
:101430006820B049487026E003210846FFF72EFDDA
:10144000AD480078401CAC4908706820A949487034
:1014500019E002210420FFF721FDA7480078401C75
:10146000A54908706820A34948700CE0042108468B
:10147000FFF714FDA0480078401C9F490870002029
:101480009C49487000BFB2E19A484078682809D169
:1014900000F0DCF94FF4967001F0D4FD042095497A
:1014A0004870A4E193484078052865D192480078B7
:1014B000072860D2DFE800F004111E2B38455200E7
:1014C00001218F48FFF77EFC8B480078401C8A4939
:1014D00008706920874948704DE001210846FFF7F0
:1014E000DDFC85480078401C8349087069208149EB
:1014F000487040E004210620FFF7D0FC7E480078C9
:10150000401C7D49087069207A49487033E0012108
:101510000420FFF7C3FC78480078401C7649087027
:1015200069207449487026E003210620FFF7B6FCC5
:1015300071480078401C7049087069206D494870F6
:1015400019E003216F48FFF73DFC6B480078401C11
:10155000694908706920674948700CE001216A48B0
:10156000FFF730FC64480078401C63490870002095
:101570006049487000BF3AE15E484078692809D167
:1015800000F064F94FF4967001F05CFD05205949B4
:1015900048702CE157484078062820D156480078FA
:1015A00010B101281AD10CE005215848FFF70AFCB8
:1015B00051480078401C504908706A204D494870D5
:1015C0000CE006215148FFF7FDFB4B480078401E18
:1015D000494908706A204749487000BF07E14548FB
:1015E00040786A2809D100F031F94FF4967001F083
:1015F00029FD06203F494870F9E03E484078072819
:1016000077D13D480078112813D2DFE800F00913A4
:10161000202D37444E5B65838D9AA4B1BBC8D5009D
:1016200003213B48FFF7CEFB33480078401C32498A
:101630000870CEE003210120FFF730FC2E4800782F
:10164000401C2D4908706B202A494870C1E00121D7
:101650000620FFF723FC28480078401C2649087024
:101660006B2024494870B4E003212648FFF7AAFB09
:1016700021480078401C20490870AAE0032104207A
:10168000FFF70CFC1C480078401C1B4908706B20BD
:10169000184948709DE002211A48FFF793FB16484D
:1016A0000078401C1449087093E002210846FFF7B7
:1016B000F5FB11480078401C0F4908706B200D495C
:1016C000487086E004210F48FFF77CFB0A48007849
:1016D000401C094908707CE004210846FFF7DEFB46
:1016E00005480078401C044908706B200149487087
:1016F0006FE06FE084000020970000200000A04011
:101700000000204100007041000034420000B4435A
:101710000000C84101213648FFF754FB35480078E6
:10172000401C3449087054E001210220FFF7B6FB49
:1017300030480078401C2F4908706B202E494870B3
:1017400047E003212A48FFF73DFB2A480078401C68
:10175000284908703DE003210420FFF79FFB25483E
:101760000078401C234908706B202349487030E002
:1017700002211F48FFF726FB1E480078401C1D4928
:10178000087026E002210520FFF788FB1948007841
:10179000401C184908706B201749487019E0022155
:1017A0001348FFF70FFB13480078401C11490870DD
:1017B0006B20114948700CE003211048FFF702FB31
:1017C0000C480078401C0B49087000200A494870FA
:1017D00000BF0CE0084840786B2808D100F036F8CC
:1017E0004FF4967001F02EFC07200349487010BD9D
:1017F0000000704197000020840000200000344267
:1018000010B51148C078D8B10F480078012802D12E
:10181000FFF7F0F916E00C48007880B90A498868AB
:101820004FF07E5103F056FA07498860886800211E
:1018300003F050F906D200200349C87002E001E02D
:1018400000F004F810BD00008400002010B5002056
:10185000FFF738FB10BD70472DE9F0410246002527
:101860000026002000230024002791F803C00CF07C
:101870000F0591F803C00CF0100CBCF1000F03D061
:1018800091F802C04CEA050591F800C0BCF1000FC8
:1018900031D0146800202BE04FF0010C0CFA00F35B
:1018A000B1F800C00CEA03069E4220D183004FF03D
:1018B0000F0C0CFA03F7BC4305FA03FC4CEA0404D2
:1018C00091F803C0BCF1280F06D14FF0010C0CFABF
:1018D00000FCC2F814C00AE091F803C0BCF1480F44
:1018E00005D14FF0010C0CFA00FCC2F810C0401CEE
:1018F0000828D1D31460B1F800C0BCF1FF0F34DD6B
:10190000546800202EE000F1080C4FF0010808FA9E
:101910000CF3B1F800C00CEA03069E4221D183000B
:101920004FF00F0C0CFA03F7BC4305FA03FC4CEA2A
:10193000040491F803C0BCF1280F05D100F1080C94
:1019400008FA0CF8C2F8148091F803C0BCF1480FF3
:1019500007D100F1080C4FF0010808FA0CF8C2F8A2
:101960001080401C0828CED35460BDE8F08101618E
:10197000704700BFFEE7000008B50121402000F0DD
:10198000D5F848208DF803001820ADF8000069460E
:101990000148FFF761FF08BD0018014010B504467B
:1019A00014B101201449087013480078B8B11348E5
:1019B000006818B11148001F006880B90A2001F0C2
:1019C00041FB00200C4908700C48006808B9012050
:1019D00010BD0A48001F006860B90220F8E70748F8
:1019E0000068012806D10548001F0068012801D1C0
:1019F000014908700020EBE7980000201001234205
:101A00000448006808B9012000E00020014908608E
:101A100070470000948121420448006808B9012001
:101A200000E0002001490860704700009401234253
:101A300008B50121482000F079F810208DF8030046
:101A40002020ADF8000003208DF802006946094807
:101A5000FFF702FF20210748FFF789FF2020ADF89C
:101A6000000069460448FFF7F7FE20210248FFF70F
:101A70007EFF08BD000C01400018014000BFFEE7DA
:101A80007047000070B5002100230F22C47804B312
:101A9000154C246804F4E064C4F5E064210AC1F143
:101AA0000403CA40447804FA03F1847814402143C3
:101AB00009010E4C0678A155047804F01F05012495
:101AC000AC4005786D11AD0005F1E025C5F8004189
:101AD00009E0047804F01F050124AC40044D0678A9
:101AE000761145F8264070BD0CED00E000E400E002
:101AF00080E100E002490143024A116070470000A2
:101B00000000FA050CED00E07047000029B1064A1C
:101B1000D2690243044BDA6104E0034AD26982438A
:101B2000014BDA61704700000010024029B1064AFB
:101B300092690243044B9A6104E0034A926982432A
:101B4000014B9A61704700000010024030B500213F
:101B50000022002400232D4D6D6805F00C0121B1F9
:101B6000042905D0082923D105E0294D056022E08C
:101B7000274D05601FE0254D6D6805F47012234D5B
:101B80006D6805F48034022505EB92421CB9214DA5
:101B9000554305600BE01D4D6D6805F400351DB122
:101BA0001C4D5543056002E0194D5543056002E0A8
:101BB000174D056000BF00BF144D6D6805F0F001C2
:101BC0000909154D6B5C0568DD4045600F4D6D687A
:101BD00005F4E061090A104D6B5C4568DD408560E5
:101BE0000A4D6D6805F46051C90A0B4D6B5C456880
:101BF000DD40C560054D6D6805F44041890B074D1A
:101C00006B5CC568B5FBF3F5056130BD00100240A3
:101C100000127A0000093D00B0000020C000002042
:101C20007047000010B544480078002846D143486A
:101C300041884FF0804001F03CF8414841884FF026
:101C4000804001F038F83F4841884FF0804001F073
:101C500034F83D4841884FF0804001F030F83B486F
:101C600041883B4801F025F83A484188384801F05E
:101C700026F83248418838A0FEF7FAFA3048418801
:101C800041A0FEF7F5FA2F4841884BA0FEF7F0FA85
:101C90002D48418854A0FEF7EBFA2C4841885EA0FD
:101CA000FEF7E6FA2B48418867A0FEF7E1FA72A03A
:101CB000FEF7DEFA0420204908703BE000214FF0D7
:101CC000804000F0F6FF00214FF0804000F0F3FF6D
:101CD00000214FF0804000F0F0FF00214FF08040E5
:101CE00000F0EDFF00211A4800F0E3FF0021184842
:101CF00000F0E5FF002161A0FEF7BAFA00216CA018
:101D0000FEF7B6FA002177A0FEF7B2FA002182A012
:101D1000FEF7AEFA00218DA0FEF7AAFA002198A0E6
:101D2000FEF7A6FA54A0FEF7A3FA03480078401E77
:101D30000149087010BD00007C0000200400002054
:101D4000180000202C00002040000020540000203B
:101D5000002C01406800002054494D5F53657443D6
:101D60006F6D70617265312854494D322C20536576
:101D700072766F312E63757250776D57696474682F
:101D8000203D2025640D0A0054494D5F536574437E
:101D90006F6D70617265322854494D322C20536545
:101DA00072766F322E63757250776D5769647468FE
:101DB000203D2025640D0A0054494D5F536574434E
:101DC0006F6D70617265332854494D322C20536514
:101DD00072766F332E63757250776D5769647468CD
:101DE000203D2025640D0A0054494D5F536574431E
:101DF0006F6D70617265342854494D322C205365E3
:101E000072766F342E63757250776D57696474689B
:101E1000203D2025640D0A0054494D5F53657443ED
:101E20006F6D70617265312854494D312C205365B6
:101E300072766F352E63757250776D57696474686A
:101E4000203D2025640D0A0054494D5F53657443BD
:101E50006F6D70617265342854494D312C20536583
:101E600072766F362E63757250776D576964746839
:101E7000203D2025640D0A000D0A000054494D5FE5
:101E8000536574436F6D70617265312854494D32EA
:101E90002C20536572766F312E63757250776D57B3
:101EA00069647468203D202564290D0A0000000043
:101EB00054494D5F536574436F6D7061726532288C
:101EC00054494D322C20536572766F322E637572F1
:101ED00050776D5769647468203D202564290D0A88
:101EE0000000000054494D5F536574436F6D70618D
:101EF0007265332854494D322C20536572766F3306
:101F00002E63757250776D5769647468203D202583
:101F100064290D0A0000000054494D5F5365744365
:101F20006F6D70617265342854494D322C205365B1
:101F300072766F342E63757250776D57696474686A
:101F4000203D202564290D0A0000000054494D5F02
:101F5000536574436F6D70617265312854494D311A
:101F60002C20536572766F352E63757250776D57DE
:101F700069647468203D202564290D0A0000000072
:101F800054494D5F536574436F6D706172653428B9
:101F900054494D312C20536572766F362E6375721D
:101FA00050776D5769647468203D202564290D0AB7
:101FB0000000000010B50446607801284FD1608A07
:101FC00001284DDD608A401E6082608821890844B6
:101FD00060802078072842D2DFE800F041040E1824
:101FE000222C350061884FF0804000F062FE61884D
:101FF00046A0FEF73DF932E061884FF0804000F0E6
:102000005AFE61884EA0FEF733F928E061884FF050
:10201000804000F052FE618856A0FEF729F91EE0CC
:1020200061884FF0804000F04AFE61885EA0FEF7B4
:102030001FF914E06188694800F03BFE618868A0E0
:10204000FEF716F90BE06188644800F038FE6188FD
:1020500070A0FEF70DF97CA0FEF70AF900BF53E06F
:10206000608A01284DD1608A401E60826088A18903
:10207000084460802078072842D2DFE800F041045D
:102080000E18222C350061884FF0804000F011FEC0
:1020900061881EA0FEF7ECF832E061884FF08040C6
:1020A00000F009FE618826A0FEF7E2F828E06188CA
:1020B0004FF0804000F001FE61882EA0FEF7D8F8B6
:1020C0001EE061884FF0804000F0F9FD618836A085
:1020D000FEF7CEF814E06188404800F0EAFD618820
:1020E0003FA0FEF7C5F80BE061883C4800F0E7FD33
:1020F000618848A0FEF7BCF853A0FEF7B9F800BF0E
:1021000002E000206070A06010BD000054494D5FE7
:10211000536574436F6D70617265312854494D3257
:102120002C20536572766F782D3E63757250776DF3
:102130005769647468203D2025640D0A0000000082
:1021400054494D5F536574436F6D706172653228F9
:1021500054494D322C20536572766F782D3E63754D
:102160007250776D5769647468203D2025640D0AAC
:102170000000000054494D5F536574436F6D7061FA
:102180007265332854494D322C20536572766F782E
:102190002D3E63757250776D5769647468203D20D9
:1021A00025640D0A0000000054494D5F53657443D7
:1021B0006F6D70617265342854494D322C2053651F
:1021C00072766F782D3E63757250776D57696474BF
:1021D00068203D2025640D0A00000000002C01400D
:1021E00054494D5F536574436F6D7061726531285A
:1021F00054494D312C20536572766F782D3E6375AE
:102200007250776D5769647468203D2025640D0A0B
:102210000000000054494D5F536574436F6D706159
:102220007265342854494D312C20536572766F788D
:102230002D3E63757250776D5769647468203D2038
:1022400025640D0A000000000D0A000030B50123CE
:10225000437001828280038A142493FBF4F3438247
:10226000838844881B1B448A93FBF4F38360838830
:1022700044881B1B448A93FBF4F504FB1533C360AD
:10228000438A5B1C438230BD7FB504460D4612A1D4
:102290002846FEF775F940B9208A0090A388628825
:1022A00021780FA0FDF7E4FF14E01CA12846FEF7FB
:1022B00067F978B9608A218AA388A268CDE90032DB
:1022C000CDE902106088A6688319627821781548E4
:1022D000FDF7CEFF7FBD00006272696566000000F9
:1022E000536572766F25643A2063757250776D5727
:1022F000696474683A2025642C206E657874507780
:102300006D57696474683A2025642C207472616E7C
:10231000506572696F643A202564000077686F6CBD
:1023200065000000F84D000810B5FEF743FAFEF70F
:102330005DFB10BD70B504460D461646072C29D22C
:10234000DFE804F028040A10161C22003246294651
:102350001148FFF77BFF1DE0324629460F48FFF783
:1023600075FF17E0324629460D48FFF76FFF11E071
:10237000324629460B48FFF769FF0BE032462946F3
:102380000948FFF763FF05E0324629460748FFF793
:102390005DFF00BF00BF70BD0400002018000020DA
:1023A0002C00002040000020540000206800002085
:1023B00070B504460D46072C23D2DFE804F0220452
:1023C000090E13181D0029460F48FFF75DFF18E09E
:1023D00029460E48FFF758FF13E029460C48FFF73F
:1023E00053FF0EE029460B48FFF74EFF09E0294650
:1023F0000948FFF749FF04E029460848FFF744FF72
:1024000000BF00BF70BD00000400002018000020C5
:102410002C00002040000020540000206800002014
:1024200010B500F001F810BD0CB50020019000902F
:102430003348006840F480303149086000BF3048BC
:10244000006800F4003000900198401C0190009852
:1024500018B90198B0F5A06FF1D12948006800F4CF
:10246000003010B10120009001E0002000900098A1
:10247000012843D12348006840F01000214908603A
:102480000846006820F0030008600846006840F035
:10249000020008601A4840681949486008464068C8
:1024A00048600846406840F48060486008464068DC
:1024B00020F47C1048600846406840F4E81048600A
:1024C0000846006840F08070086000BF0C48006853
:1024D00000F000700028F9D00948406820F003009F
:1024E000074948600846406840F00200486000BF65
:1024F0000348406800F00C000828F9D10CBD00002A
:102500000010024000200240042808D14FF0E021D2
:10251000096941F004014FF0E022116107E04FF03A
:10252000E021096921F004014FF0E02211617047B8
:102530007047000010B51348006840F001001149D1
:10254000086008464068104908400E49486008463F
:1025500000680E4908400B4908600846006820F4EE
:10256000802008600846406820F4FE0048604FF470
:102570001F008860FFF754FF4FF0006004490860B7
:1025800010BD0000001002400000FFF8FFFFF6FE43
:1025900008ED00E030B589B005460C460121042065
:1025A000FFF7C4FA0121C802FFF7C0FA4FF4106028
:1025B000ADF8200003208DF8220018208DF82300AC
:1025C00008A91948FFF748F9ADF81850ADF81440BC
:1025D0000020ADF81A00ADF8160005A9134800F068
:1025E00073FB6020ADF804000020ADF80C00012062
:1025F000ADF8060001A90D4800F0FEF901A90B484D
:1026000000F00AFB0821094800F042FA08210748B7
:1026100000F040FB0121054800F0ACF9012103481E
:1026200000F0B4F909B030BD00080140002C0140B1
:1026300030B589B005460C4601210846FFF766FA19
:1026400001210420FFF772FA18208DF823000F20D3
:10265000ADF8200003208DF8220008A92148FFF7DB
:10266000FBF80020ADF81A00ADF81600ADF81850D0
:10267000ADF8144005A94FF0804000F025FB602024
:10268000ADF804000020ADF80C000120ADF8060004
:1026900001A9800700F0B0F901A94FF0804000F0D7
:1026A00001FA01A94FF0804000F05CFA01A94FF057
:1026B000804000F0B1FA0821C80600F0E9F90821CD
:1026C000C80600F041FA0821C80600F09BFA08216C
:1026D000C80600F0DFFA0121880700F04BF909B0C5
:1026E00030BD00000008014030B589B005460C46F9
:1026F00001210220FFF70AFA01210C20FFF716FA48
:1027000018208DF82300C020ADF8200003208DF89C
:10271000220008A92548FFF79FF818208DF823000C
:102720000320ADF820008DF8220008A92048FFF70B
:1027300093F80020ADF81A00ADF81600ADF8185067
:10274000ADF8144005A91B4800F0BEFA6020ADF8B2
:1027500004000020ADF80C000120ADF8060001A92E
:10276000144800F049F901A9124800F09BF901A9A9
:10277000104800F0F7F901A90E4800F04DFA0821C1
:102780000C4800F085F908210A4800F0DDF908211D
:10279000084800F037FA0821064800F07BFA0121CA
:1027A000044800F0E7F809B030BD0000000801401F
:1027B000000C01400004004010B501210A4800F05F
:1027C00000F901280AD10949086980470021064813
:1027D00000F078FA6421044800F069FA0121024807
:1027E00000F0C5F810BD00000008004044010020C2
:1027F00010B50121134800F0E4F8012821D101218E
:10280000104800F0B4F810480078B0B1FFF70AFAA9
:102810000D48007801280BD10C4948700C494870CC
:102820000C4948700C4948700C4948700C49487074
:1028300005480078401E04490870FFF775FDFEF753
:1028400073FB10BD000C00407E000020040000203F
:10285000180000202C000020400000205400002020
:10286000680000207FB505460C4601210820FFF7CF
:102870004DF90020ADF80A00ADF80600ADF808509B
:10288000ADF8044001A90E4800F01EFA01221146DD
:102890000B4800F0A7F832208DF8000001208DF8D9
:1028A000030002208DF8010003208DF80200684625
:1028B000FFF7E8F80121024800F05CF87FBD000056
:1028C000000C004010B501210E4800F07AF80128F4
:1028D00016D101210B4800F04AF80B48008830B9A6
:1028E000FFF78EF84FF4FA500749088004E00648D5
:1028F0000088401E04490880FEF700F9FEF780FFBB
:1029000010BD000000100040800000207FB505468B
:102910000C4601211020FFF7F9F80020ADF80A005D
:10292000ADF80600ADF80850ADF8044001A90D4817
:1029300000F0CAF9012211460A4800F053F8362087
:102940008DF8000001208DF8030002208DF80100B1
:102950008DF802006846FFF795F80121014800F064
:1029600009F87FBD00100040CA4302827047CA4385
:102970000282704721B1028842F00102028004E025
:1029800002884FF6FE731A400280704731B1B0F8EA
:10299000442042F40042A0F8442005E0B0F844206E
:1029A000C2F30E02A0F8442070470146888C70479D
:1029B00002460020138A0B400BB1012000E00020EA
:1029C000704730B50246002000230024158A05EA2E
:1029D0000103958905EA010413B10CB1012000E05F
:1029E000002030BD1AB183890B43838102E08389C3
:1029F0008B4383817047000070B5002400220023C0
:102A0000058C4FF6FE7635400584028C8388048B56
:102A10004FF68F752C40B51E2C400D882C43751E2B
:102A20002A400D892A434D882A43144DA8420BD0D1
:102A3000134DA84208D0134DA84205D0124DA8420C
:102A400002D0124DA84213D14FF6F7752A404D8996
:102A50002A434FF6FB752A408D882A434FF6FF65BF
:102A60002B404FF6FF552B408D892B43CD892B43AF
:102A700083800483CD888586028470BD002C01404C
:102A80000034014000400140004401400048014042
:102A90000A460021018B4FF6F77319401143018359
:102AA0007047000070B5002400220023058C4FF60B
:102AB000EF7635400584028C8388048B48F6FF75D9
:102AC0002C404FF6FF452C400D884FF6FF7606EA66
:102AD00005252C434FF6DF752A400D8906EA0515BA
:102AE0002A434D8806EA05152A43154DA84202D00F
:102AF000144DA8421DD14FF67F752A404D894FF6DF
:102B0000FF7606EA05152A434FF6BF752A408D88E1
:102B100006EA05152A434FF6FF352B404FF2FF75A5
:102B20002B408D8906EA85052B43CD8906EA85056C
:102B30002B4383800483CD880587028470BD000009
:102B4000002C0140003401400A460021018B4FF265
:102B5000FF7319404FF6FF7303EA02231943018301
:102B60007047000070B5002400220023058C4FF64A
:102B7000FF6635400584028C8388848B4FF68F7501
:102B80002C404FF6FC752C400D882C434FF6FF551A
:102B90002A400D894FF6FF7606EA05252A434D881F
:102BA00006EA05252A43154DA84202D0144DA84235
:102BB0001DD14FF2FF752A404D894FF6FF7606EA88
:102BC00005252A434FF6FF352A408D8806EA05255C
:102BD0002A434EF6FF752B404DF6FF752B408D892D
:102BE00006EA05152B43CD8906EA05152B4383809C
:102BF0008483CD888587028470BD0000002C01404D
:102C0000003401400A460021818B4FF6F7731940CA
:102C1000114381837047000070B500220023002417
:102C2000058C4EF6FF7635400584038C8488828BB4
:102C300048F6FF752A404FF6FF452A400D884FF6AB
:102C4000FF7606EA05252A434DF6FF752B400D89D0
:102C500006EA05352B434D8806EA05352B430B4D17
:102C6000A84202D00A4DA84208D14BF6FF752C406D
:102C70008D894FF6FF7606EA85152C438480828382
:102C8000CD88A0F84050038470BD0000002C0140A6
:102C9000003401400A460021818B4FF2FF73194036
:102CA0004FF6FF7303EA022319438183704781853E
:102CB0007047818670470187704781877047A0F809
:102CC0004010704781847047002202881D4B984253
:102CD0000ED01D4B98420BD0B0F1804F08D01B4B4B
:102CE000984205D01A4B984202D01A4B984204D110
:102CF0004FF68F731A404B881A43174B984207D0F0
:102D0000164B984204D04FF6FF431A40CB881A4323
:102D100002808B8883850B8803850A4B98420BD0F1
:102D2000094B984208D00E4B984205D00D4B984263
:102D300002D00D4B984201D10B7A03860123838286
:102D400070470000002C01400034014000040040A6
:102D500000080040000C004000100040001400403B
:102D60000040014000440140004801407FB5054655
:102D70000C4601210420FEF7C9FEADF80850ADF85D
:102D800004400020ADF80A00ADF8060001A90D4886
:102D9000FFF79AFF012241210A48FFF723FE1E2078
:102DA0008DF8000003208DF801008DF8020001204D
:102DB0008DF803006846FEF765FE01210148FFF724
:102DC000D9FD7FBD0008004010B540F225511D48D7
:102DD00000F04AF810B31B4800F002F9C4B21A48D8
:102DE000008800F40040C8B91748008800F480400B
:102DF00060B10A2C03D000201349088020E012485B
:102E0000008840F400401049088019E00D2C06D1DC
:102E10000D48008840F480400B49088010E00A48C3
:102E20000088C0F30D0009490C5407480088401C75
:102E30000549088008460088C72801DD0020088071
:102E400010BD000000380140CC00002038020020F6
:102E500021B1828942F40052828104E082894DF6D8
:102E6000FF731A408281704770B502460024002328
:102E70000025002040F66A16B14200D100BFC1F320
:102E8000421501F01F03012606FA03F3012D02D1BA
:102E90009689334006E0022D02D1168A334001E0C4
:102EA000968A33400C12012606FA04F41688344040
:102EB00013B10CB1012000E0002070BDF0B5034655
:102EC000002400260025002040F66A17B94200D1F0
:102ED00000BF1846C1F3421401F01F06012707FA8C
:102EE00006F5012C01D10C3004E0022C01D1103088
:102EF00000E014301AB107682F43076002E007684A
:102F0000AF430760F0BD00002DE9F04786B00546ED
:102F10000E460024A24600BFA1460027B08900B19A
:102F200000BF2F462C8A4CF6FF700440F088044303
:102F30002C82AC894EF6F3100440B08831890843E6
:102F4000718908430443AC81AC8A4FF6FF400440CA
:102F5000B0890443AC8201A8FEF7F8FD1F48874200
:102F600002D1DDF810A001E0DDF80CA0A88900F482
:102F7000004040B10AEBCA0000EB0A10316849007A
:102F8000B0FBF1F807E00AEBCA0000EB0A10316869
:102F90008900B0FBF1F86420B8FBF0F004012009CF
:102FA000642101FB1089A88900F4004040B132205F
:102FB00000EBC900B0FBF1F000F00700044308E0AB
:102FC000322000EB09106421B0FBF1F000F00F009B
:102FD00004432C8106B0BDE8F087000000380140B2
:102FE00001468888C0F30800704700BFFEE730380C
:102FF0000A2801D2012070470020704700BF7047A7
:1030000010B56FF00400FFF77FFA0A4800680A491C
:10301000B0FBF1F0094908700846007800EB400168
:10302000C1EBC0104FF6FF7101EAC00004490880EF
:1030300010BD00009C00002000127A00C400002097
:10304000C60000200146114A12884A434FF0E0238F
:103050005A6100229A611A46126942F001021A610D
:1030600000BF4FF0E022106900F001021AB100F435
:103070008032002AF5D04FF0E022126922F00102DE
:103080004FF0E0231A6100229A617047C6000020C9
:103090000146114A12784A434FF0E0235A61002258
:1030A0009A611A46126942F001021A6100BF4FF09C
:1030B000E022106900F001021AB100F48032002A07
:1030C000F5D04FF0E022126922F001024FF0E02328
:1030D0001A6100229A617047C400002000BF054AAF
:1030E000128802F04002002AF9D0C2B2014B1B1D27
:1030F0001A807047003801404FF4A060FEF7FAFCD8
:1031000027484168482088474FF4E13000F052F8E2
:10311000FFF776FF472144F61F60FFF73BFA472190
:1031200044F61F60FFF784FA11214FF4FA70FFF79D
:10313000DBFA40F2CF2140F2CF70FFF793FB112171
:103140004FF4FA70FFF7E2FBFEF772FCFEF714FC97
:10315000FDF79EFE00201349487020E00020FEF796
:103160001DFC012802D0022818D10BE00E4800886F
:1031700064300D4908800846028801210620FFF7C7
:10318000D9F80BE0084800886438074908800846E9
:10319000028801210620FFF7CDF800BF00BFDDE760
:1031A00044010020840000209A00002001460868A5
:1031B0007047000010B586B00446012144F20400B7
:1031C000FEF7B4FC4FF40070ADF8140003208DF846
:1031D000160018208DF8170005A91C48FEF73CFBC7
:1031E0004FF48060ADF8140004208DF8170005A995
:1031F0001648FEF731FB25208DF8000003208DF8DE
:1032000001008DF8020001208DF803006846FEF7EA
:1032100039FC01940020ADF80800ADF80A00ADF8C3
:103220000C00ADF810000C20ADF80E0001A9084804
:10323000FFF76AFE012240F225510548FFF73EFEE6
:1032400001210348FFF704FE06B010BD000801404D
:103250000038014030B595B0054613AB12AA09A954
:10326000284600F039FA044614B1204615B030BDA6
:103270000020149026E0224909689DF8502001EBB7
:10328000C20113AB11AA486801A900F025FA04464F
:103290000CB12046EAE709A901A800F0BBFC60B91F
:1032A0009DF844009DF84810884201DD0220DDE7CA
:1032B0009DF85000124988750AE09DF85000401CA6
:1032C000C0B214900E48007D9DF850108842D2DCA8
:1032D00000BF0B48007D9DF85010884201D10420AA
:1032E000C4E714A9284600F0D7FA04460CB12046DA
:1032F000BCE79DF85000024948750020B6E7000081
:10330000440100202DE9F0419AB09C48847D007D65
:10331000A04202DC1AB0BDE8F0819849096801EBCF
:10332000C40106AB07AA486808A900F0D5F908A9A6
:1033300093A0FCF79DFF002644E09048008B0121FC
:10334000B1400840D8B122218FA0FCF791FF304650
:1033500000F028FB89492431471839468BA0FCF737
:1033600087FF222188A0FCF783FF304600F01AFB7C
:1033700082492431084410A941F8260018E030465B
:1033800000F010FB7D492431085810A941F82600AF
:103390007A48C07D30B910A850F826107CA0FCF700
:1033A00067FF05E010A850F826107AA0FCF760FF30
:1033B0009DF81C00401EB04202D078A0FCF758FFD8
:1033C000701CC6B29DF81C008642B6DB74A0FCF7E8
:1033D0004FFF00F039FB6948407D0B280DD2DFE834
:1033E00000F0060D151E27323F4E5F7287006349BD
:1033F000096851F834008047054690E05F4A12683A
:1034000052F8341010988847054688E05B4B1B68DB
:1034100053F83420DDE91001904705467FE0574F0F
:103420003F6857F8343010A807C89847054676E03B
:10343000DFF848C1DCF800C05CF8347010A80FC891
:10344000B84705466BE01498DFF830C10090DCF80F
:1034500000C05CF8347010A80FC8B84705465EE09D
:10346000DDE91401DFF814C1CDE90001DCF800C08A
:103470005CF8347010A80FC8B84705464FE0DDE986
:1034800014121698DFF8F4C0CDE900120290DCF8AF
:1034900000C05CF8347010A80FC8B84705463EE07D
:1034A000DDE91423DDE91610DFF8D0C0CDE90023F3
:1034B000CDE90210DCF800C05CF8347010A80FC829
:1034C000B84705462BE0DDE91523DDE91710CDE906
:1034D0000123CDE903101498DFF8A0C00090DCF8B8
:1034E00000C05CF8347010A80FC8B847054616E055
:1034F000DDE91623DDE91810CDE90223CDE904103A
:10350000DDE91401DFF874C0CDE90001DCF800C08A
:103510005CF8347010A80FC8B847054600BF00BF5C
:1035200000F050FA9DF8180001280CD11348C07D16
:1035300020B929461BA0FCF79BFE07E029461BA0EB
:10354000FCF796FE02E018A0FCF792FE0B4890F8FC
:10355000EC0088B10948D0F8F0000A21B0FBF1F284
:1035600001FB12070548D0F8F000B0FBF1F83A462D
:10357000414611A0FCF77CFE00BFCBE644010020D1
:103580000D0A257328000000256300002573000044
:10359000256C750030582558000000002C000000F4
:1035A000290000003D256C753B0D0A003D30582573
:1035B000583B0D0A0000000046756E6374696F6E1B
:1035C0002052756E2054696D653A25642E2531644C
:1035D0006D730D0A00000000F0B50346154600208B
:1035E00000220026002455E01F782C2F01D104B9B9
:1035F00001221F78292F01D01F780FB904B94AE0A2
:10360000002E34D11F78302F02DB1F78392F11DDC7
:103610001F78612F02DB1F78662F0BDD1F78412F8B
:1036200002DB1F78462F05DD1F78582F02D01F7848
:10363000782F0CD102B12EE01F78612F03DB1F78A9
:10364000203F0F7001E01F780F70491C1FE01F78AA
:10365000222F04D102B11EE00126012417E01F78B9
:10366000202F14D01F782C2F11D0FF2613E01F78A5
:10367000222F00D1002402B10DE044B11F785C2F4D
:1036800002D15B1C471CF8B21F780F70491C471C05
:10369000F8B25B1CA8E700BF00270F702E70F0BDCA
:1036A00010B50446002010700BE020780870641CF0
:1036B000491C1078401C10701078984201DB0120E2
:1036C00010BD2078202802D020780028EDD10020DD
:1036D000087000BFF4E700002DE9FF4F85B0804679
:1036E00089460027002004900390012002904FF0AB
:1036F000000B002544461DE02078202816D005F058
:103700007F00052812DA0DB945F0800505F07F002D
:10371000042803D120782A2800D00EE0207805F074
:103720007F010DF80100681CC5B202E0852D00D1B3
:1037300003E0641C20780028DED100BF8DB100209A
:1037400005F07F010DF8010051A1684600F062FA12
:1037500018B900210898017002E001210898017051
:1037600000254FF0000A444614E0641C0AF10100F1
:1037700000F0FF0A2078202802D020782A2809D1DA
:10378000204600F0D7F90646282E03D02A2E01D075
:10379000CDF810A02078282802D020780028E4D185
:1037A0004446049810B10498401C04444FF0000AA9
:1037B000002654E0207810B94FF0010A50E020783C
:1037C000282803D116B9781CC7B213E0207829281D
:1037D00008D13EB917B1781EC7B201E04FF0010A17
:1037E00047B93DE02078222804D10EB9012000E03D
:1037F0000020064647B9207820282FD0207889F865
:10380000000009F1010929E020782C2804D10120C9
:103810000290681CC5B214E02078202811D02078CE
:1038200028280ED04DB9BBF1050F06DA20780DF827
:103830000B000BF1010000F0FF0B0298401CC0B21E
:103840000290012F0AD10298022807D10298401C49
:10385000C0B202900398401CC0B20390641CA9E758
:1038600000BF0398012809D100200DF80B0008A122
:10387000684600F0CFF908B9002003900799039833
:103880000870002089F80000504609B0BDE8F08FAC
:10389000766F6964000000002DE9F043B5B005467D
:1038A0000F460024002604E000213D488155701C8D
:1038B000C6B20A2EF8DB06E06D1C287818B9012084
:1038C00035B0BDE8F08328782828F5D16D1C61E07B
:1038D00034AA69462846FFF77FFE064635449DF820
:1038E000D00020B1012827D0FF284CD149E09DF815
:1038F000000000B333A9684600F027F906460EB170
:103900000220DDE7204600F04DF825490A31339AC0
:103910000A50A1F12400008B0121A14088432049D5
:103920001A39088304211E480155601CC4B20A2CB0
:1039300001DD0320C4E726E0684600F087F9401C5B
:1039400000F0FF08204600F02DF815490A3100EB81
:1039500001094946684600F06EF911481A38018B92
:103960000120A040014388B20D491A3908830C4850
:1039700000F80480601CC4B20A2C01DD03209FE71C
:1039800001E002209CE700BF2878292801D0287890
:1039900000B900E09CE700BF3C70002090E7000009
:1039A0005E01002002460020002105E0044B5B5C24
:1039B0000344D8B24B1CD9B29142F7DB70470000E8
:1039C0005E01002010B501210D48FEF7F1FF01282E
:1039D00008D10C48D0F8F0004FF6FF7108440949AF
:1039E000C1F8F0000648FEF7E0FF0649D1F8F010F4
:1039F00008440449C1F8F0000846D0F8F00010BDB2
:103A0000000800404401002010B5044604EBC40047
:103A100000EB04100122C2EB800081B24FF47A70F7
:103A2000FFF7A4F901200149C87510BD4401002029
:103A300010B50246012000E050430B1EA1F1010425
:103A4000E1B2F9D110BD000010B501210848FEF720
:103A50008BFF4FF6FF710648FFF729F90021044854
:103A6000FFF730F900200349C1F8F00010BD000055
:103A7000000800404401002070B51D48008800F493
:103A80000040002833D01A480578002019494855CD
:103A9000194881681748884704461CB91649C86800
:103AA000804721E0134800F0DDF80546012D00D0E5
:103AB0002C46CCB1012C06D0022C08D0032C0AD005
:103AC000042C10D10BE00DA0FCF7D2FB0BE00EA0F4
:103AD000FCF7CEFB07E00FA0FCF7CAFB03E010A049
:103AE000FCF7C6FB00BF00BF00200149088070BD85
:103AF000CC0000203802002044010020BAAFCAFDEB
:103B0000B4EDCEF3210D0A00B2CECAFDB4EDCEF372
:103B1000210D0A00B2CECAFDCCABB6E0210D0A00E1
:103B2000CEB4D5D2B5BDC6A5C5E4B5C4BAAFCAFD3D
:103B3000210D0A000146491C00E0491C0878202894
:103B400001D10029F9D1087870472DE9F0430746E3
:103B50000E4600254FF00A083C46002030601FE06A
:103B60002078392802DC207830280ADA20784628A4
:103B700002DC2078412804DA2078582809D1012D68
:103B800007D12078412801DB4FF01008681CC5B22E
:103B900005E0207800B904E00120BDE8F083641C52
:103BA000DEE700BF3C46B8F1100F0FD1032D01DA5C
:103BB0000220F2E72078302806D16078582803D117
:103BC000A41CA81EC5B204E00320E6E70DB904203A
:103BD000E3E71BE00DB1681EC5B22078392806DC8A
:103BE0002078302803DB2078A0F1300902E020782B
:103BF000A0F1370929464046FFF71AFF316809FB53
:103C000000103060641C207800B900E0E2E700BFDB
:103C10000020C2E702460AE010780B78984201D0F3
:103C200001207047107800B902E0521C491CF3E7EC
:103C300000BF0020F5E706E002780A70027802B9BA
:103C400002E0401C491CF7E700BF70470146002016
:103C500005E00A7802B903E0421CD0B2491CF8E73B
:103C600000BF704710B58CB004461E230BAA03A9F1
:103C70002046FFF715FD0090009810B101200CB010
:103C800010BD9DF82C00044400200B900EE05E480F
:103C90009DF82C2050F8221003A8FFF7BBFF00B9B5
:103CA00008E09DF82C00401CC0B20B909DF82C0041
:103CB0000728ECD300BF9DF82C0007287CD2DFE852
:103CC00000F004053C5E8EA1A00000BF4FA0FCF7F1
:103CD000CFFA4FA0FCF7CCFA5DA0FCF7C9FA6CA0B4
:103CE000FCF7C6FA7AA0FCF7C3FA89A0FCF7C0FA81
:103CF00097A0FCF7BDFAA4A0FCF7BAFAA9A0FCF7BC
:103D0000B7FAAEA0FCF7B4FAB2A0FCF7B1FAB7A0CC
:103D1000FCF7AEFABCA0FCF7ABFAC2A0FCF7A8FA1D
:103D2000CEA0FCF7A5FADBA0FCF7A2FAE6A0FCF710
:103D30009FFAF2A0FCF79CFAA5E234A0FCF798FAEF
:103D4000FE48FCF795FA00200B900EE0FC48006856
:103D50009DF82C2000EBC2004168FAA0FCF788FA1D
:103D60009DF82C00401CC0B20B90F548007D9DF8DA
:103D70002C108842EADC25A0FCF77AFA83E223A023
:103D8000FCF776FAF1A0FCF773FA00200B901CE028
:103D9000EB4909689DF82C2001EBC20101AB02AA96
:103DA000486803A9FFF798FCE54800689DF82C10C7
:103DB00050F8312003A900E063E2F4A0FCF758FAC0
:103DC0009DF82C00401CC0B20B90DD48007D9DF892
:103DD0002C108842DCDC0DA0FCF74AFA53E20BA061
:103DE000FCF746FA0BAA03A92046FFF7F5FB9DF85E
:103DF0002C0028B9694603A8FFF7A7FE0B90CFE176
:103E0000E3E113E2E7E10000D00000200D0A00002A
:103E10002D2D2D2D2D2D2D2D2D2D2D2D2D2D2D2DD2
:103E20002D2D2D2D2D2D2D2D55534D4152542056D8
:103E3000332E312D2D2D2D2D2D2D2D2D2D2D2D2DA7
:103E40002D2D2D2D2D2D2D2D2D2D2D200D0A00004C
:103E50002020202055534D415254CAC7D3C9414C4C
:103E600049454E54454BBFAAB7A2B5C4D2BBB8F61C
:103E7000C1E9C7C9B5C4B4AEBFDAB5F7CAD4BBA5EA
:103E8000BDBBD7E9BCFE2CCDA8B9FD200D0A0000B2
:103E9000CBFC2CC4E3BFC9D2D4CDA8B9FDB4AEBF0E
:103EA000DAD6FACAD6B5F7D3C3B3CCD0F2C0EFC3D3
:103EB000E6B5C4C8CEBACEBAAFCAFD2CB2A2D6B44B
:103EC000D0D02ED2F2B4CB2CC4E3BFC90D0A00006F
:103ED000D2D4CBE6D2E2B8FCB8C4BAAFCAFDB5C4FE
:103EE000CAE4C8EBB2CECAFD28D6A7B3D6CAFDD75E
:103EF000D62831302F3136BDF8D6C629A1A2D7D663
:103F0000B7FBB4AEA1A2BAAFCAFDC8EB0D0A000060
:103F1000BFDAB5D8D6B7B5C8D7F7CEAAB2CECAFDE4
:103F2000292CB5A5B8F6BAAFCAFDD7EEB6E0D6A72C
:103F3000B3D63130B8F6CAE4C8EBB2CECAFD2CB263
:103F4000A2D6A7B3D6BAAFCAFDB7B5200D0A0000F6
:103F5000BBD8D6B5CFD4CABE2ED0C2D4F6B2CECA44
:103F6000FDCFD4CABEBDF8D6C6C9E8D6C3B9A6C46B
:103F7000DC2CD0C2D4F6BDF8D6C6D7AABBBBB9A636
:103F8000C4DC2E0D0A000000BCBCCAF5D6A7B3D60F
:103F90003A7777772E6F70656E6564762E636F6DF6
:103FA0000D0A000055534D415254D3D037B8F6CFC7
:103FB000B5CDB3C3FCC1EE3A0D0A00003F3A202054
:103FC00020202020BBF1C8A1B0EFD6FAD0C5CFA2E7
:103FD0000D0A000068656C703A202020BBF1C8A172
:103FE000B0EFD6FAD0C5CFA20D0A00006C69737489
:103FF0003A202020BFC9D3C3B5C4BAAFCAFDC1D0CF
:10400000B1ED0D0A0A00000069643A20202020204A
:10401000BFC9D3C3BAAFCAFDB5C44944C1D0B1ED1D
:104020000D0A0A006865783A20202020B2CECAFD29
:104030003136BDF8D6C6CFD4CABE2CBAF3B8FABF53
:10404000D5B8F12BCAFDD7D6BCB4D6B4D0D0BDF804
:10405000D6C6D7AABBBB0D0A0A0000006465633A46
:1040600020202020B2CECAFD3130BDF8D6C6CFD434
:10407000CABE2CBAF3B8FABFD5B8F12BCAFDD7D651
:10408000BCB4D6B4D0D0BDF8D6C6D7AABBBB0D0A37
:104090000A00000072756E74696D653A312CBFAA12
:1040A000C6F4BAAFCAFDD4CBD0D0BCC6CAB13B307F
:1040B0002CB9D8B1D5BAAFCAFDD4CBD0D0BCC6CA02
:1040C000B13B0D0A0A000000C7EBB0B4D5D5B3CCA4
:1040D000D0F2B1E0D0B4B8F1CABDCAE4C8EBBAAF0F
:1040E000CAFDC3FBBCB0B2CECAFDB2A2D2D4BBD80B
:1040F000B3B5BCFCBDE1CAF82E0D0A002D2D2D2D47
:104100002D2D2D2D2D2D2D2D2D2D2D2D2D2D2D2DDF
:104110002D2D2D2D2D2D414C49454E54454B2D2DEA
:104120002D2D2D2D2D2D2D2D2D2D2D2D2D2D2D2DBF
:104130002D2D2D2D2D2D2D200D0A00005C4E00085B
:104140004401002025730D0A000000002D2D2D2DA7
:104150002D2D2D2D2D2D2D2D2D2D2D2D2D2D2D2D8F
:104160002D2D2D2D2DBAAFCAFD204944202D2D2DEA
:104170002D2D2D2D2D2D2D2D2D2D2D2D2D2D2D2D6F
:104180002D2D2D2D2D2D2D2D200D0A00257320696F
:10419000642069733A0D0A3058253038580D0A00EA
:1041A0009DF82C0020B939A00099FCF761F80EE0C9
:1041B0009DF82C00042801D0022060E536A0FCF711
:1041C00057F801203949C87501E0022057E531A0B0
:1041D000FCF74EF857E02FA0FCF74AF80BAA03A90A
:1041E0002046FFF7F9F99DF82C00C8B9694603A8E5
:1041F000FFF7ABFC0B909DF82C0020B92CA0009988
:10420000FCF736F80EE09DF82C00042801D00220BF
:1042100035E52AA0FCF72CF800202449C87501E0F8
:1042200002202CE51BA0FCF723F82CE019A0FCF7DA
:104230001FF80BAA03A92046FFF7CEF99DF82C0022
:10424000C8B9694603A8FFF780FC0B909DF82C00C5
:1042500078B91649009881F8EC00084690F8EC000F
:1042600018B11BA0FCF704F807E020A0FCF700F849
:1042700003E0022003E5022001E506A0FBF7F8FFBA
:1042800001E00120FBE400BF0020F8E44845583A73
:10429000305825580D0A00003136BDF8D6C6B2CECA
:1042A000CAFDCFD4CABE210D0A000000440100207F
:1042B0004445433A256C750D0A0000003130BDF8C5
:1042C000D6C6B2CECAFDCFD4CABE210D0A000000A8
:1042D00052756E2054696D652043616C63756C6125
:1042E00074696F6E204F4E0D0A00000052756E20EB
:1042F00054696D652043616C63756C6174696F6EA0
:10430000204F46460D0A00000160704721F0004230
:10431000A2F16052B2F5801F01F0004328BFD2F134
:104320007F6C0BD95FEA001C43EAC20242EB50707B
:1043300018BF704728BF20F001007047B2F5801FFA
:10434000BCBF184670474FEA410C1CF5001F02D253
:10435000084600F0BABC70B500F00CFA0000008905
:10436000FFF7F6BF4FF00040A0F580007047000057
:104370002DE9C04130B4DFF8A0C23CEA111418BFE7
:104380003CEA131400F0EC8081EA03051CEA1114E6
:1043900044EAD57418BF1CEA131500F0C780A4EBDB
:1043A00005044FF0004545EAC12145EAC32341EA2F
:1043B000505143EA525304F17F74994204F500349A
:1043C0004FEAC0204FEAC22208BF904200F09C8012
:1043D0004FEA13650FF24016765D4FEA134506FB70
:1043E00005F7C7F1807706FB07F74FEAD737A7FB3A
:1043F00003687642C8F58038A7FB06CE38BFA8F11F
:10440000010807FB08E64FF0000EA6FB028CE6FB56
:1044100003CEDCF1000CCEF1004E38BFAEF1010E40
:10442000A6FB0C584FF000074FF00005E6FB0E8787
:10443000A1FB08C6A0FB07CE16EB0E0645F1000552
:10444000E1FB076515F1E04E7EBFA4F580345FEA1D
:1044500046066D4116F1800745F100054FEA172722
:104460004FEA066647EA0567A6F1DE46B6F1805FC9
:104470004FEA15251FD9384624F0010C05EBC4710D
:10448000BCF1FE6F01EB0C1102D8F0BCBDE800815D
:1044900024425CBF01F5801E9EEAC47F02D4F0BCBA
:1044A000BDE80081244238D4F0BCA1F1C041BDE890
:1044B000004100F0ADB94FEAD22242EA43524FEA3E
:1044C000D323A7FB02864FEAD02040EA415007FBE6
:1044D00003661EEA0E0F4FEAD12105FB026658BFA4
:1044E000A6EB0056B6EB00564FEA520E4EEAC37EDC
:1044F00018EB0E0E56EB530EBDD518EB02085E41BD
:104500007F1C55F10005B6E74FF480154FF000070A
:104510004FF000064FF00008ADE7F0BC4FF0000090
:1045200001F1C04101F00041BDE8008111EA0C1F1A
:104530000CEA131500D00CE013EA0C1F00F02580E4
:104540004FF00000F0BC81EA030101F00041BDE83A
:104550000081F0BCBDE8004181EA030100F058B9D8
:10456000F0BCBDE8004170B500F004F9097EFC3EE6
:1045700000F007B881EA03014FF0000001F00041AC
:10458000704781EA030100F043B9F0BCBDE8004187
:104590004FF0000021497047FFFDFBF9F7F5F4F2F9
:1045A000F0EEEDEBE9E8E6E4E3E1E0DEDDDBDAD8CE
:1045B000D7D5D4D3D1D0CFCDCCCBCAC8C7C6C5C42C
:1045C000C2C1C0BFBEBDBCBBBAB9B8B7B6B5B4B343
:1045D000B2B1B0AFAEADACABAAA9A8A8A7A6A5A42E
:1045E000A3A3A2A1A09F9F9E9D9C9C9B9A999998F2
:1045F0009797969595949393929191908F8F8E8E95
:104600008D8C8C8B8B8A8989888887878685858421
:1046100084838382828181800000FF070000F87F0D
:10462000DFF848C170B51CEA111E1EBF1CEA131545
:104630009EEA0C0F95EA0C0F00F06F8081EA0304EC
:1046400023EA4C134EEAD47E21EA4C1141F4801146
:1046500043F48013AE44A1FB024CA0FB0365AEF112
:104660007F7E361955EB0C05A1FB034C4CF1000382
:10467000A0FB021C16EB0C06654153F10003094236
:1046800018BF46F0010613F4007F0BD14FEA033147
:104690004FEA0530340341EA155140EA16506FF0F5
:1046A00003020AE04FEAC3214FEAC520F40241EABF
:1046B000555140EA56506FF0020202EB2E4201EBD8
:1046C000025585EACE710AD05FEA440C18BF24F087
:1046D000004450F1000041F1000120EAD47040F2A2
:1046E000FE7C624500D270BDA84214BF4FF08044EA
:1046F0004FF04044002E08BF0024BEF1806FA8BFD9
:10470000A1F1C041BDE8704080F282804FF000000E
:1047100001F1C04101F0004170479EEA0C0F0CEA24
:10472000131518BF95EA0C0F06D04FF0000081EA70
:10473000030E0EF0004170BD00F01CF88900013E30
:1047400000F007B800F009B84FEA430C5FEA5C5C80
:1047500008D081EA030100F05BB84FEA410C5FEA40
:104760005C5CF6D14FF00000014970470000FF0784
:104770000000F87F0EF1020E2EF0030E5EF8046BBF
:10478000364205D4012A43EB030515F5001F12D864
:10479000012841EB010C1CF5001F0CD80ED14FEA8B
:1047A000D17C15F5001F0CEB4C0C0CF1020C08BF72
:1047B0004CEBD37C04E04FF0080C01E04FEAD37CD3
:1047C0000CEB4C0526FA05F606F00706B6F1040CCC
:1047D00006D20EEB860CBDE870404CF0010C604731
:1047E000DFE80CF0090B02024FF000414FF000002F
:1047F000A1F5002170BD19461046012851EB0104B6
:1048000018BFD4F5001484BF002001F0004170BD32
:104810000808A0F500114FEA3101704743004FEA44
:10482000D30C4FEA3C0C43401FBF40070CF16051D2
:1048300013F0FE4F70471CF0006F03D100200CF006
:10484000004170470CF0004343EA507010B540EA55
:10485000CC0000F0F4F900BF000000924FEA000124
:10486000FFF7D6BF4FF000414FF00000A1F5002147
:104870007047000090EA010F48BF81F0004100F14D
:104880003082421A3CBF801A89184FEAD0524FF04A
:104890007F4C1CEA410FA2EBD15318BF9CEA026F78
:1048A00000F03B804FF0004C4CEA00204CEA012124
:1048B00021FA03FC10EB0C0C1ED202F1FF325FEA6E
:1048C0001C2040EBC25038BF70471CF07F0F4FEAEE
:1048D000400C18BFBCF17F4F38BF7047C3F12003B5
:1048E000994008BF20F00100BCF17F4F38BF7047EE
:1048F000A0F1C04000F0E9B94FEA3C00000A40EBEB
:10490000C25028BF1CF0FF0F4FEA400CE6D018BF82
:10491000BCF17F4F38BF7047EAE79CEA026F05D0D1
:1049200010EA5C0F08BF00F00040704710B500F0BF
:1049300086F900BF64FBBE3E401058BFC0F1404046
:10494000491058BFC1F140418142EFF300807047E8
:104950004FF47F0C1CEAD0121EBF1CEAD11392EA5E
:104960000C0F93EA0C0F00F0858090EA010F48BF0E
:1049700042F4807240F4000C41F400002CF07F41BE
:1049800020F07F4000B58142A2EB03020FF2081C29
:10499000ACEB504EC0F100009EF800E04FEA4E0E26
:1049A00000FB0EFC38BF49004FEA2C1C02F5FA024E
:1049B0000CFB0EF34FEACE1E4FEA112C4FEAC12139
:1049C0000EEB635E42EB22420EFB0CFC4FEA1C53E3
:1049D00000FB03114FEA112C4FEA01310EFB0CFCD6
:1049E0004FEADC4C00FB0C11C14228BF09184CEB0C
:1049F00003335DF804EB10EB410143EBC250B2F519
:104A00007C0F38BF704729D512F0F00F1CBF00F1A2
:104A1000C04000F000407047008182838485868713
:104A200088898B8C8D8E8F919293959697999A9C6D
:104A30009D9FA0A2A3A5A7A8AAACAEB0B2B3B5B7DC
:104A4000B9BCBEC0C2C5C7C9CCCED1D4D7D9DCDFB2
:104A5000E2E6E9ECF0F3F7FAFE0000004FEA400C62
:104A60000CF1807CBCF17E4F28BF7047B0F1C04094
:104A700000F02BB990EA010F0CEAD11348BF42F4C1
:104A80008072624538BF634507D213F47F0F16D09A
:104A900080EA010000F00040704710B500F0CFF848
:104AA000097EFC3E00F005B880EA010000F00040FD
:104AB000704780EA010000F0004000F006B912F4EF
:104AC0007F0F04BF0248704780EA010000F0FDB884
:104AD0000000C07F50EA010C00F113801CF5000FAC
:104AE00058BFBCF5000F01D48842704707D710F5B6
:104AF000000F58BF11F5000F15D488427047894246
:104B000070471CF5000F04D5BCF5000FF7D58142A6
:104B100070474FF0807C1CEB400F38BF1CEB410FFF
:104B200001D28142704710B500F089F89224490003
:104B30004FF000504FF08051FFF7FEBE4FF47F0C56
:104B40001CEAD0121EBF1CEAD11392EA0C0F93EAA2
:104B50000C0F00F0478090EA010F48BF42F48072CA
:104B60004FF0004C4CEA00204CEA012102EB03021A
:104B7000A0FB0113A2F50002002918BF43F00103B6
:104B80005B0028BF4FEA330342EB22425FEA132C5B
:104B90004CEBC2502EBFBCEB436FB2F57C0F70479D
:104BA0004FEA036CBCF1004F08BF20F00100B2F5E2
:104BB0007C0F38BF70470BD582F0FF0212F5803FA3
:104BC000C8BF704700F1C040D8BF00F00040704738
:104BD00000F5000C5FEA4C0C48BF7047B0F1C040D4
:104BE00000F073B890EA010F0CEAD11348BF42F409
:104BF0008072624538BF634504D280EA010000F04C
:104C00000040704710B500F01AF800BF8900013E5F
:104C100000F007B800F009B85FEA410C5FEA1C6CCD
:104C200008D080EA010000F050B85FEA400C5FEA6B
:104C30001C6CF6D14FF00040A0F5800070470EF1DB
:104C4000020E2EF0030E5EF8044B244204D44FEA09
:104C50004102B2F17F4F11D84FEA4003B3F17F4FC9
:104C60000CD80ED14FEAD07CB2F17F4F0CEB4C0C3C
:104C70000CF1020C08BF4CEBD17C04E04FF0080CA7
:104C800001E04FEAD17C0CEB4C0324FA03F404F06E
:104C90000704B4F1040C06D20EEB840CBDE81040FE
:104CA0004CF0010C6047DFE80CF0070802024FF0FF
:104CB0000040A0F5800010BD0846420018BFD2F1A8
:104CC000807288BF00F0004010BDFF2141EAD05043
:104CD000C005704790EA010F48BF81F000413FF5E1
:104CE000D0AD421A04D882F00042A0EB0200114479
:104CF0004FEAD0524FF07F4C1CEA410FA2EBD15348
:104D000018BF9CEA026F4AD04FF0004C4CEA0020DA
:104D10004CEA012121FA03FCB0EB0C0C0FD412F089
:104D2000FE0F36D05FEA4C001DD5001240EBC2509A
:104D300038BF70471CF03F0F18BF70470BE0A2F15F
:104D400001025FEA1C2040EBC25038BF70471CF0E4
:104D50007F0F18BF7047C3F12003994014BF401E56
:104D600020F00100704780084FEA122308BF704707
:104D7000B0FA80FCA2EB0C02CCF1280C60FA0CF02B
:104D800093EA122F04BF00EBC25070474FEAC37082
:104D90007047130A5FEADC1008BF7047F6E79CEA29
:104DA000026F04D010EA5C0F08BF0020704710B5F6
:104DB000FFF745FF40DFF63E81F00040704730319D
:104DC0003233343536373839414243444546403032
:104DD00058003031323334353637383961626364E4
:104DE0006566403078000400000800000000000004
:104DF0000002000100001000536572766F25643ACE
:104E0000207374617475733A2025642C2063757265
:104E100050776D57696474683A2025642C206E655C
:104E2000787450776D57696474683A2025642C2033
:104E30007472616E50776D3A2025642C2074726113
:104E40006E506572696F643A2025642C207472611B
:104E50006E54696D65733A20256400002D2D2D2D4B
:104E60002D2D2D2D2D2D2D2D2D2D2D2D2D2D2D2D72
:104E70002D2D2D2D2DBAAFCAFD20C7E5B5A52D2DA1
:104E80002D2D2D2D2D2D2D2D2D2D2D2D2D2D2D2D52
:104E90002D2D2D2D2D2D2D2D2D200D0A0000000046
:104EA0003F000000646563006964000072756E7401
:104EB000696D650068656C70000000006C69737452
:104EC0000000000068657800766F69642041726DAB
:104ED0005F4465627567436F6E6669672875313632
:104EE00020646570776D5769647468312C20753162
:104EF0003620646570776D5769647468322C20754C
:104F0000313620646570776D5769647468332C207E
:104F100075313620646570776D5769647468342C18
:104F20002075313620646570776D57696474683513
:104F30002C2075313620646570776D57696474680C
:104F400036290000766F6964204C4544315F546F08
:104F500067676C6528766F6964290000766F6964FD
:104F6000204C4544325F546F67676C6528766F69E3
:104F700064290000766F696420536572766F5F550F
:104F8000736D6172745072696E7453746174757369
:104F9000287538206E756D2C20636F6E73742063D6
:104FA000686172202A636F6E6669674E616D65295C
:104FB00000000000766F69642041726D5F55736D6B
:104FC0006172745072696E7453746174757328637E
:104FD0006F6E73742063686172202A636F6E6669F6
:104FE000674E616D65290000766F69642041726DBE
:104FF0005F41637443686F6F736528753820636819
:105000006F6F736529000000766F696420536572C5
:10501000766F5F55736D6172744D6F7665436F6E19
:10502000666967287538206E756D2C2075313620BD
:10503000706572696F642C207531362070776D57FA
:105040006964746829000000766F6964207772696A
:1050500074655F61646472287533322061646472C0
:105060002C7533322076616C2900000075333220B4
:10507000726561645F6164647228753332206164B3
:1050800064722900766F69642064656C61795F6D74
:105090007328753136206E6D73290000766F696450
:1050A0002064656C61795F757328753332206E7585
:1050B00073290000D45000080000002038020000CE
:1050C0006C0100089C5100083802002028070000ED
:1050D000C80100081122011201E540064006120233
:1050E000E5DC05DC051203E5340834080A11042860
:1050F0001205E5D007D0071206FC7F087F3C12326C
:1051000043401F1985F11A0144117CA24A0410681A
:1051100008020304060708090C6910BC02040656BD
:1051200013A04E1B08B4041ABC041AA8041AC40421
:105130001AA4041AAC0413AD3114086C50140809F5
:10514000431B0848081345301B0884081A91081AA5
:105150009C0813011A1408444F1B0819081A5C080C
:10516000132D0A1B08C8381335231B0808201AB151
:10517000081A74181AA1181AB40813A9071B08E80A
:105180000822EC1420093A14085532140805331B80
:0C51900008790C0A120BD501CB000000BE
:0400000508000131BD
:00000001FF
